:100000000C9424010C9441010C9441010C94410185
:100010000C9441010C9441010C9441010C94410158
:100020000C9441010C9441010C9441010C94410148
:100030000C9441010C946A040C9441010C9441010C
:100040000C9491040C9441010C94E6010C94410130
:100050000C9441010C9441010C9441010C94410118
:100060000C9441010C944101000000000000005F6D
:1000700000000007000700147F147F14242A7F2A41
:10008000122313086462364955225000050300000C
:10009000001C2241000041221C00082A1C2A0808DA
:1000A000083E0808005030000008080808080060F2
:1000B00060000020100804023E5149453E00427F86
:1000C000400042615149462141454B311814127F8D
:1000D0001027454545393C4A494930017109050316
:1000E0003649494936064949291E0036360000007E
:1000F000563600000008142241141414141441222E
:100100001408000201510906324979413E7E11115D
:10011000117E7F494949363E414141227F4141227A
:100120001C7F494949417F090901013E4141513242
:100130007F0808087F00417F41002040413F017F48
:10014000081422417F404040407F0204027F7F0428
:1001500008107F3E4141413E7F090909063E415159
:10016000215E7F09192946464949493101017F012C
:10017000013F4040403F1F2040201F7F2018207F2C
:100180006314081463030478040361514945430070
:10019000007F4141020408102041417F0000040219
:1001A0000102044040404040000102040020545439
:1001B00054787F48444438384444442038444448C0
:1001C0007F3854545418087E090102081454543CD2
:1001D0007F0804047800447D40002040443D000036
:1001E0007F10284400417F40007C041804787C087C
:1001F00004047838444444387C1414140808141453
:10020000187C7C080404084854545420043F44409B
:10021000203C4040207C1C2040201C3C4030403C86
:1002200044281028440C5050503C4464544C440022
:100230000836410000007F00000041360800080831
:100240002A1C08081C2A080811241FBECFEFD8E07A
:10025000DEBFCDBF11E0A0E0B1E0E2E4FBE002C010
:1002600005900D92A430B107D9F724E0A4E0B1E0E5
:1002700001C01D92A13FB207E1F70E946D050C94E9
:100280009F050C94000090916D01911104C0109293
:100290006F0110926E0140916E0150916F019A01B1
:1002A0002F5F3F4F30936F0120936E01FA01E059A9
:1002B000FE4F808384E080936D01293B314049F4F7
:1002C00081E080936C0110926F0110926E01109288
:1002D000030108950F931F93CF93DF9380916D01D6
:1002E000882329F080916D01815080936D01809168
:1002F00002012FE3829FC00111249093010180939A
:10030000000187E085B981E090E00E94260520E4A5
:1003100030E0C4E0D1E021503109D1F080910001FA
:100320009091010101979093010180930001FC01DC
:10033000E65DFC4F80818EBD0DB407FEFDCF809140
:10034000C00087FFE8CF8091C60088832196E3CF65
:100350008091020181508093020185B904E011E08F
:10036000F8010C171D0770F48091C00087FF04C0CE
:100370008091C600888321960F5F1F4F80810E9465
:100380004301EECF78948091020181111AC087E079
:10039000809302011092290380916C01882371F0EF
:1003A00089EB91E0E0E7F1E0AAE2B3E001900D9281
:1003B0000197E1F710926C0186E501C088E4809313
:1003C000C600DF91CF911F910F9108951F920F9258
:1003D0000FB60F9211242F933F934F935F936F9318
:1003E0007F938F939F93AF93BF93EF93FF938091EE
:1003F000C00087FF05C08091C6000E944301F7CF6F
:10040000FF91EF91BF91AF919F918F917F916F91EC
:100410005F914F913F912F910F900FBE0F901F90C2
:1004200018951092C4001092C500E1ECF0E088E14C
:100430008083808180688083089584B1876084B9D7
:10044000089584B18C6284B98DB581608DBD80E5DD
:100450008CBD1EBC08952FE3AC01249FC001259FD5
:10046000900D1124FB0177FD379623E0F595E79574
:100470002A95E1F7E80FF91FE65DFC4F67707727D3
:1004800081E090E0062E01C0880F0A94EAF790817F
:10049000982B908308952FE3AC01249FC001259FE2
:1004A000900D1124FB0177FD379633E0F595E79524
:1004B0003A95E1F7E80FF91FE65DFC4F6770772783
:1004C00081E090E0062E01C0880F0A94EAF780953B
:1004D000908198239083089589EB91E0EAE2F3E01C
:1004E000DF019C011D9221503040E1F70895E1E8C1
:1004F000F0E080E180831092800021E02093E50409
:1005000088EC97E39093E7048093E6049093870048
:100510008093860081E180838AE691E09093E404F1
:100520008093E30420936F0008958F929F92AF927F
:10053000BF92CF92DF92EF92FF920F931F93CF93D0
:10054000DF934C0170E06052710985E0869F700175
:10055000879FF00C1124C0E0D0E0C70188599F4F5D
:100560007C01F701EC0FFD1FC49000E010E0D12CDE
:100570005E01A80CB91CC601002E02C09595879596
:100580000A94E2F780FF04C0B501C8010E942B0263
:100590000F5F1F4F0730110571F72196C530D10548
:1005A00001F7DF91CF911F910F91FF90EF90DF90B6
:1005B000CF90BF90AF909F908F9008958F929F9211
:1005C000AF92BF92CF92DF92EF92FF920F931F9361
:1005D000CF93DF9300D000D0CDB7DEB78C016A0196
:1005E0007B014AE0842E912CA12CB12CC114D104A2
:1005F000E104F104F1F0C701B601A50194010E94E4
:100600007D0560E36C0D8AE0289F60191124C80104
:1006100029833A834B835C830E949502095F1F4FB5
:100620002981C22E3A81D32E4B81E42E5C81F52E96
:10063000DDCF0F900F900F900F90DF91CF911F9112
:100640000F91FF90EF90DF90CF90BF90AF909F9071
:100650008F9008950E941D0287B1806387B90E9420
:1006600077020E9421020C941102C0E0D0E0FF2426
:10067000F39480910301882321F0C83F81E0D807DB
:1006800029F5C0E0D0E0FF24F39480910301882392
:1006900021F0C83F81E0D80789F5C0E0D0E0FF2411
:1006A000F39480910301882319F0C730D105F1F547
:1006B000C0E0D0E0FF24F39480910301882309F483
:1006C00054C0C730D10509F06CC04FC0F092290367
:1006D000809129038111FCCF00E010E0809103019B
:1006E000882319F00730110511F42196C2CFBE01FD
:1006F000C8010E942B020F5F1F4FF0CFF092290319
:10070000809129038111FCCF00E010E0809103016A
:10071000882319F00730110511F42196B6CFBE01D8
:10072000C8010E944B020F5F1F4FF0CFF0922903C8
:10073000809129038111FCCF00E010E0809103013A
:10074000882359F0083F81E0180739F0B801CE013D
:100750000E942B020F5F1F4FF1CF62E370E080E039
:1007600090E00E94FE0421969CCF81E080932903B3
:10077000809129038111FCCFC0E0D0E0809103017A
:10078000882309F440C0C730D105E9F100E010E04A
:10079000809103018823A9F1083F81E0180701F542
:1007A00030C0F0922903809129038111FCCF00E031
:1007B00010E080910301882321F0083F81E01807B1
:1007C00041F462E370E080E090E00E94FE04219634
:1007D00073CFB801CE010E944B020F5F1F4FE9CFCC
:1007E000C8018C0F9D1F80FF05C0B801CE010E947B
:1007F0002B0204C0B801CE010E944B020F5F1F4FB5
:10080000C7CF2196BBCF6EEE72E080E090E00E94F1
:10081000FE0481E080932903809129038111FCCF9C
:10082000C0E0D0E080910301882301F1C730D105F9
:10083000E9F000E010E0809103018823A9F0083F6F
:1008400081E0180789F0C8018C0F9D1F80FF05C04B
:10085000B801CE010E944B0204C0B801CE010E9433
:100860002B020F5F1F4FE7CF2196DCCF6EEE72E0B9
:1008700080E090E00E94FE04C1E0809103018823A3
:1008800041F1C0932903809129038111FCCFC093CA
:100890002903809129038111FCCF0E946C024091B1
:1008A00068015091690160916A0170916B01DB01EF
:1008B000CA010196A11DB11D809368019093690141
:1008C000A0936A01B0936B0180E090E00E94DE0289
:1008D000D4CFFFCF1F920F920FB60F9211242F93F8
:1008E0003F934F935F936F937F938F939F93AF93B8
:1008F000BF93EF93FF93E091E304F091E404099533
:10090000FF91EF91BF91AF919F918F917F916F91E7
:100910005F914F913F912F910F900FBE0F901F90BD
:1009200018951F920F920FB60F9211242F933F9399
:100930008F939F93AF93BF938091E9049091EA04C2
:10094000A091EB04B091EC043091E80423E0230F74
:100950002D3720F40196A11DB11D05C026E8230FF7
:100960000296A11DB11D2093E8048093E9049093A1
:10097000EA04A093EB04B093EC048091ED04909111
:10098000EE04A091EF04B091F0040196A11DB11DF9
:100990008093ED049093EE04A093EF04B093F004E1
:1009A000BF91AF919F918F913F912F910F900FBE6B
:1009B0000F901F9018953FB7F8948091ED04909197
:1009C000EE04A091EF04B091F00426B5A89B05C0F9
:1009D0002F3F19F00196A11DB11D3FBF6627782F4B
:1009E000892F9A2F620F711D811D911D42E0660FA4
:1009F000771F881F991F4A95D1F70895CF92DF92EC
:100A0000EF92FF92CF93DF936B017C010E94DB0496
:100A1000EB01C114D104E104F10489F00E947C05CA
:100A20000E94DB046C1B7D0B683E734090F381E0F9
:100A3000C81AD108E108F108C851DC4FEACFDF91AC
:100A4000CF91FF90EF90DF90CF9008958230910585
:100A500038F0880F991F880F991F05970197F1F7B4
:100A60000895789484B5826084BD84B5816084BD26
:100A700085B5826085BD85B5816085BDEEE6F0E017
:100A8000808181608083E1E8F0E010828081826073
:100A90008083808181608083E0E8F0E080818160F4
:100AA0008083E1EBF0E0808184608083E0EBF0E024
:100AB000808181608083EAE7F0E0808184608083C8
:100AC0008081826080838081816080838081806872
:100AD00080831092C100089508950E9431050E94FC
:100AE0006C050E942A03C0E0D0E00E9435032097E5
:100AF000E1F30E940000F9CF0895A1E21A2EAA1B8B
:100B0000BB1BFD010DC0AA1FBB1FEE1FFF1FA217BD
:100B1000B307E407F50720F0A21BB30BE40BF50BBA
:100B2000661F771F881F991F1A9469F76095709543
:100B3000809590959B01AC01BD01CF010895F8947B
:020B4000FFCFE5
:040B4200C80D0701D2
:00000001FF
