:100000000C9424010C9441010C9441010C94410185
:100010000C9441010C9441010C9441010C94410158
:100020000C9441010C9441010C9441010C94410148
:100030000C9441010C94EF040C9441010C94410187
:100040000C9416050C9441010C94E7010C944101A9
:100050000C9441010C9441010C9441010C94410118
:100060000C9441010C944101000000000000005F6D
:1000700000000007000700147F147F14242A7F2A41
:10008000122313086462364955225000050300000C
:10009000001C2241000041221C00082A1C2A0808DA
:1000A000083E0808005030000008080808080060F2
:1000B00060000020100804023E5149453E00427F86
:1000C000400042615149462141454B311814127F8D
:1000D0001027454545393C4A494930017109050316
:1000E0003649494936064949291E0036360000007E
:1000F000563600000008142241141414141441222E
:100100001408000201510906324979413E7E11115D
:10011000117E7F494949363E414141227F4141227A
:100120001C7F494949417F090901013E4141513242
:100130007F0808087F00417F41002040413F017F48
:10014000081422417F404040407F0204027F7F0428
:1001500008107F3E4141413E7F090909063E415159
:10016000215E7F09192946464949493101017F012C
:10017000013F4040403F1F2040201F7F2018207F2C
:100180006314081463030478040361514945430070
:10019000007F4141020408102041417F0000040219
:1001A0000102044040404040000102040020545439
:1001B00054787F48444438384444442038444448C0
:1001C0007F3854545418087E090102081454543CD2
:1001D0007F0804047800447D40002040443D000036
:1001E0007F10284400417F40007C041804787C087C
:1001F00004047838444444387C1414140808141453
:10020000187C7C080404084854545420043F44409B
:10021000203C4040207C1C2040201C3C4030403C86
:1002200044281028440C5050503C4464544C440022
:100230000836410000007F00000041360800080831
:100240002A1C08081C2A080811241FBECFEFD8E07A
:10025000DEBFCDBF11E0A0E0B1E0ECE4FCE002C005
:1002600005900D92A430B107D9F726E0A4E0B1E0E3
:1002700001C01D92A234B207E1F70E94F2050C946E
:1002800024060C9400009091BE02911104C01092BB
:10029000C0021092BF024091BF025091C0029A0169
:1002A0002F5F3F4F3093C0022093BF02FA01EF53FC
:1002B000FD4F808384E08093BE02293B314049F4A6
:1002C00081E08093BD021092C0021092BF02109292
:1002D000030108950F931F93CF93DF938091BE0284
:1002E000882329F08091BE0281508093BE028091C4
:1002F00002012FE3829FC00111249093010180939A
:10030000000187E085B981E090E00E94AB0520E420
:1003100030E0C4E0D1E021503109D9F080910001F2
:100320009091010101979093010180930001FC01DC
:10033000E558FB4F80818EBD0DB407FCECCFFE016C
:10034000EF018091C00087FFF7CF8091C6008193B5
:10035000F7CF8091020181508093020185B904E0BA
:1003600011E0F8010C171D0770F48091C00087FFA1
:1003700004C08091C600888321960F5F1F4F808143
:100380000E944301EECF78948091020181111AC03E
:1003900087E08093020110927A048091BD02882345
:1003A00071F089EB91E0E1ECF2E0ABE7B4E00190B1
:1003B0000D920197E1F71092BD0286E501C088E435
:1003C0008093C600DF91CF911F910F9108951F92E6
:1003D0000F920FB60F9211242F933F934F935F9379
:1003E0006F937F938F939F93AF93BF93EF93FF93FD
:1003F0008091C00087FF05C08091C6000E94430124
:10040000F7CFFF91EF91BF91AF919F918F917F9126
:100410006F915F914F913F912F910F900FBE0F9071
:100420001F9018951092C4001092C500E1ECF0E006
:1004300088E18083808180688083089584B18760AB
:1004400084B9089584B18C6284B91DBC8CB5826571
:100450008CBD81E08DBD1EBC08952FE3AC01249FAF
:10046000C001259F900D1124FB0177FD379623E0F5
:10047000F595E7952A95E1F7E80FF91FE558FB4F49
:100480006770772781E090E0062E01C0880F0A94FC
:10049000EAF79081982B908308952FE3AC01249F75
:1004A000C001259F900D1124FB0177FD379633E0A5
:1004B000F595E7953A95E1F7E80FF91FE558FB4FF9
:1004C0006770772781E090E0062E01C0880F0A94BC
:1004D000EAF78095908198239083089589EB91E0C5
:1004E000EBE7F4E0DF019C011D9221503040E1F781
:1004F0000895E1E8F0E080E180831092800021E03F
:100500002093360680E69AE4909338068093370667
:10051000909387008093860081E180838AE691E052
:10052000909335068093340620936F0008958F9240
:100530009F92AF92BF92CF92DF92EF92FF920F9372
:100540001F93CF93DF934C0170E06052710985E0F7
:10055000869F7001879FF00C1124C0E0D0E0C70196
:1005600088599F4F7C01F701EC0FFD1FC49000E0FC
:1005700010E0D12C5E01A80CB91CC601002E02C0EF
:10058000959587950A94E2F780FF04C0B501C801EC
:100590000E942D020F5F1F4F0730110571F7219642
:1005A000C530D10501F7DF91CF911F910F91FF90D9
:1005B000EF90DF90CF90BF90AF909F908F90089575
:1005C0008F929F92AF92BF92CF92DF92EF92FF9263
:1005D0000F931F93CF93DF9300D000D0CDB7DEB73A
:1005E0008C016A017B014AE0842E912CA12CB12C54
:1005F000C114D104E104F104F1F0C701B601A50171
:1006000094010E94020660E36C0D8AE0289F601945
:100610001124C80129833A834B835C830E9497028B
:10062000095F1F4F2981C22E3A81D32E4B81E42EC0
:100630005C81F52EDDCF0F900F900F900F90DF9122
:10064000CF911F910F91FF90EF90DF90CF90BF90CF
:10065000AF909F908F90089561152AEC72072AE958
:1006600082072BE39207B0F5611521EE720725EFA3
:10067000820725E0920788F5603826E9720728E9A5
:100680008207910568F5603422E472072FE0820743
:10069000910548F5603A26E8720721E08207910546
:1006A00028F5603127E272078105910510F5683E53
:1006B00023E0720781059105F8F464367105810520
:1006C0009105E8F46A30710581059105D8F082E062
:1006D00090E008958AE090E0089589E090E0089520
:1006E00088E090E0089587E090E0089586E090E04B
:1006F000089585E090E0089584E090E0089583E017
:1007000090E0089581E090E008950E941E0287B174
:10071000806387B90E9479020E9422020C9412021F
:10072000E12CF12CC1E080910301882329F038EFFE
:10073000E31631E0F30631F5E12CF12CC1E08091B4
:100740000301882329F028EFE21621E0F206B1F533
:10075000E12CF12CC1E080910301882329F087E08E
:10076000E816F10409F046C0E12CF12CC1E08091BB
:100770000301882309F461C037E0E316F10409F0AE
:100780007BC05BC0C0937A0480917A048111FCCF56
:10079000C12CD12C80910301882321F027E0C216BF
:1007A000D10421F43FEFE31AF30ABDCFB701C6012C
:1007B0000E942D028FEFC81AD80AECCFC0937A049A
:1007C00080917A048111FCCFC12CD12C809103013E
:1007D000882321F087E0C816D10421F42FEFE21A14
:1007E000F20AADCFB701C6010E944D023FEFC31A16
:1007F000D30AECCFC0937A0480917A048111FCCFA4
:10080000C12CD12C80910301882369F038EFC316E5
:1008100031E0D30641F0B601C7010E942D028FEFEF
:10082000C81AD80AEFCF62E370E080E090E00E943F
:1008300083052FEFE21AF20A8ECF81E080937A04CB
:1008400080917A048111FCCFE12CF12C809103017D
:10085000882309F44AC037E0E316F10409F445C0DF
:10086000C12CD12C809103018823D9F128EFC21625
:1008700021E0D20621F535C0C0937A0480917A0434
:100880008111FCCFC12CD12C80910301882329F048
:1008900028EFC21621E0D20651F462E370E080E056
:1008A00090E00E9483053FEFE31AF30A60CFB601A0
:1008B000C7010E944D028FEFC81AD80AE5CFC601C2
:1008C0008E0D9F1D80FF05C0B601C7010E942D023D
:1008D00004C0B601C7010E944D028FEFC81AD80AA2
:1008E000C1CF2FEFE21AF20AB1CF60ED77E080E0DE
:1008F00090E00E94830581E080937A0480917A04DD
:100900008111FCCFE12CF12C80910301882329F186
:1009100037E0E316F10409F1C12CD12C80910301D9
:100920008823B9F028EFC21621E0D20691F0C60163
:100930008E0D9F1D80FF05C0B601C7010E944D02AC
:1009400004C0B601C7010E942D028FEFC81AD80A51
:10095000E5CF3FEFE31AF30AD7CF60ED77E080E011
:1009600090E00E948305812C912C540109EF11E045
:10097000809103018823D9F075016401E601C8194B
:10098000D90980910301882379F0C701B6010E943B
:100990002C039C010203C001039F900D1124895078
:1009A0009E4F8C179D0724F446015701E1CFFFCFDE
:1009B00010937A0480917A048111FCCF0E946E0218
:1009C000260137018FEF481A580A680A780AB701DA
:1009D000A601CE010E94E00273016201CFCF1F92F7
:1009E0000F920FB60F9211242F933F934F935F9363
:1009F0006F937F938F939F93AF93BF93EF93FF93E7
:100A0000E0913406F09135060995FF91EF91BF9181
:100A1000AF919F918F917F916F915F914F913F9196
:100A20002F910F900FBE0F901F9018951F920F924D
:100A30000FB60F9211242F933F938F939F93AF93F1
:100A4000BF9380913A0690913B06A0913C06B091ED
:100A50003D063091390623E0230F2D3720F401960F
:100A6000A11DB11D05C026E8230F0296A11DB11DD1
:100A70002093390680933A0690933B06A0933C0658
:100A8000B0933D0680913E0690913F06A0914006AE
:100A9000B09141060196A11DB11D80933E06909331
:100AA0003F06A0934006B0934106BF91AF919F913E
:100AB0008F913F912F910F900FBE0F901F9018951F
:100AC0003FB7F89480913E0690913F06A091400672
:100AD000B091410626B5A89B05C02F3F19F001969D
:100AE000A11DB11D3FBF6627782F892F9A2F620F56
:100AF000711D811D911D42E0660F771F881F991F90
:100B00004A95D1F70895CF92DF92EF92FF92CF935B
:100B1000DF936B017C010E946005EB01C114D104DD
:100B2000E104F10489F00E9401060E9460056C1B3B
:100B30007D0B683E734090F381E0C81AD108E1084C
:100B4000F108C851DC4FEACFDF91CF91FF90EF90D1
:100B5000DF90CF9008958230910538F0880F991F6B
:100B6000880F991F05970197F1F70895789484B538
:100B7000826084BD84B5816084BD85B5826085BD99
:100B800085B5816085BDEEE6F0E08081816080837F
:100B9000E1E8F0E010828081826080838081816062
:100BA0008083E0E8F0E0808181608083E1EBF0E029
:100BB000808184608083E0EBF0E0808181608083CD
:100BC000EAE7F0E0808184608083808182608083B6
:100BD0008081816080838081806880831092C100E1
:100BE000089508950E94B6050E94F1050E948503AC
:100BF000C0E0D0E00E9490032097E1F30E94000043
:100C0000F9CF0895A1E21A2EAA1BBB1BFD010DC04E
:100C1000AA1FBB1FEE1FFF1FA217B307E407F507AC
:100C200020F0A21BB30BE40BF50B661F771F881F88
:100C3000991F1A9469F760957095809590959B011E
:0C0C4000AC01BD01CF010895F894FFCF76
:040C4C00C80D0701C7
:00000001FF
