:100000000C9424010C9441010C9441010C94410185
:100010000C9441010C9441010C9441010C94410158
:100020000C9441010C9441010C9441010C94410148
:100030000C9441010C9427040C9441010C9441014F
:100040000C944E040C9441010C9410020C94410148
:100050000C9441010C9441010C9441010C94410118
:100060000C9441010C944101000000000000005F6D
:1000700000000007000700147F147F14242A7F2A41
:10008000122313086462364955225000050300000C
:10009000001C2241000041221C00082A1C2A0808DA
:1000A000083E0808005030000008080808080060F2
:1000B00060000020100804023E5149453E00427F86
:1000C000400042615149462141454B311814127F8D
:1000D0001027454545393C4A494930017109050316
:1000E0003649494936064949291E0036360000007E
:1000F000563600000008142241141414141441222E
:100100001408000201510906324979413E7E11115D
:10011000117E7F494949363E414141227F4141227A
:100120001C7F494949417F090901013E4141513242
:100130007F0808087F00417F41002040413F017F48
:10014000081422417F404040407F0204027F7F0428
:1001500008107F3E4141413E7F090909063E415159
:10016000215E7F09192946464949493101017F012C
:10017000013F4040403F1F2040201F7F2018207F2C
:100180006314081463030478040361514945430070
:10019000007F4141020408102041417F0000040219
:1001A0000102044040404040000102040020545439
:1001B00054787F48444438384444442038444448C0
:1001C0007F3854545418087E090102081454543CD2
:1001D0007F0804047800447D40002040443D000036
:1001E0007F10284400417F40007C041804787C087C
:1001F00004047838444444387C1414140808141453
:10020000187C7C080404084854545420043F44409B
:10021000203C4040207C1C2040201C3C4030403C86
:1002200044281028440C5050503C4464544C440022
:100230000836410000007F00000041360800080831
:100240002A1C08081C2A080811241FBECFEFD8E07A
:10025000DEBFCDBF11E0A0E0B1E0ECEBFAE002C000
:1002600005900D92A431B107D9F726E0A4E1B1E0E1
:1002700001C01D92A435B207E1F70E942A050C9433
:100280005C050C9400009091D002911104C0109272
:10029000D2021092D1024091D1025091D2029A0121
:1002A0002F5F3F4F3093D2022093D102FA01ED52DB
:1002B000FD4F808384E08093D002293B314049F494
:1002C00081E08093CF021092D2021092D10210925C
:1002D000030108950F931F93CF93DF938091D00272
:1002E000882329F08091D00281508093D0028091A0
:1002F00002012FE3829FC00111249093010180939A
:10030000000187E085B981E090E00E94E304C6E146
:10031000D1E08FE390E041E050E00197D0F12091EF
:1003200000013091010121503109309301012093E6
:100330000001F901E357FB4FA081E09114019A01FC
:100340000090150102C0220F331F0A94E2F7F0E07B
:10035000EE0FFF1FEC5FFE4F608171812623372374
:10036000232B49F48730910510F41EBC05C087305B
:10037000910509F4A07FAEBD0DB407FCCECFFE0100
:10038000EF012091C00027FFF7CF2091C6002193F5
:10039000F7CF8091020181508093020185B906E177
:1003A00011E0F8010C171D0770F48091C00087FF61
:1003B00004C08091C600888321960F5F1F4F808103
:1003C0000E944301EECF789480910201811123C0F5
:1003D00087E08093020110928C048091CF028823E1
:1003E00071F089EB91E0E3EDF2E0ADE8B4E001906B
:1003F0000D920197E1F71092CF0286E501C088E4E3
:100400008093C600809115018F5F8093150188301D
:1004100011F410921501DF91CF911F910F91089562
:100420001F920F920FB60F9211242F933F934F9369
:100430005F936F937F938F939F93AF93BF93EF934C
:10044000FF938091C00087FF05C08091C6000E9485
:100450004301F7CFFF91EF91BF91AF919F918F91A2
:100460007F916F915F914F913F912F910F900FBEB0
:100470000F901F9018951092C4001092C500E1ECE7
:10048000F0E088E18083808180688083089584B172
:10049000876084B9089584B18C6284B98CB5816514
:1004A0008CBD1DBC1EBC08952FE3AC01249FC00170
:1004B000259F900D1124FB0177FD3796A3E0F5955C
:1004C000E795AA95E1F7E80FF91FE357FB4F67702F
:1004D000772781E090E0062E01C0880F0A94EAF7A2
:1004E0009081982B908308952FE3AC01249FC00145
:1004F000259F900D1124FB0177FD3796B3E0F5950C
:10050000E795BA95E1F7E80FF91FE357FB4F6770DE
:10051000772781E090E0062E01C0880F0A94EAF761
:100520008095908198239083089589EB91E0EDE880
:10053000F4E0DF019C011D9221503040E1F7089565
:10054000E1E8F0E080E180831092800021E02093D8
:10055000480680EA9CE290934A068093490690936D
:1005600087008093860081E180838AE691E0909302
:1005700047068093460620936F0008958F929F92BE
:10058000AF92BF92CF92DF92EF92FF920F931F93A1
:10059000CF93DF934C0170E06052710985E0869F34
:1005A0007001879FF00C1124C0E0D0E0C70188598A
:1005B0009F4F7C01F701EC0FFD1FC49000E010E09D
:1005C000D12C5E01A80CB91CC601002E02C0959565
:1005D00087950A94E2F780FF04C0B501C8010E9424
:1005E00054020F5F1F4F0730110571F72196C53078
:1005F000D10501F7DF91CF911F910F91FF90EF90FF
:10060000DF90CF90BF90AF909F908F9008958F9282
:100610009F92AF92BF92CF92DF92EF92FF920F9391
:100620001F93CF93DF9300D000D0CDB7DEB78C01FE
:100630006A017B018AE0882E912CA12CB12CC11477
:10064000D104E104F104F1F0C701B601A501940160
:100650000E943A0560E36C0D8AE0289F601911241E
:10066000C80129833A834B835C830E94BE02095FE1
:100670001F4F2981C22E3A81D32E4B81E42E5C81FB
:10068000F52EDDCF0F900F900F900F90DF91CF914F
:100690001F910F91FF90EF90DF90CF90BF90AF90A0
:1006A0009F908F9008950E94470287B1806387B919
:1006B0000E94A0020E944B020C943B02FF24F39480
:1006C000F0928C0480918C048111FCCFC0E0D0E0CA
:1006D00080910301811102C0C1E010C0C730D10573
:1006E000D9F300E010E080910301882309F491C060
:1006F000083F81E0180709F07BC08BC0C09314014C
:1007000060ED77E080E090E00E94BB04CF5FC830EE
:10071000A9F7F0928C0480918C048111FCCFC0E089
:10072000D0E080910301811102C0C1E010C0C73048
:10073000D105D9F300E010E080910301882309F48A
:100740007BC0083F81E0180709F065C075C0C09301
:10075000140160ED77E080E090E00E94BB04CF5F81
:10076000C830A9F7F0928C0480918C048111FCCFE1
:1007700000E010E080910301811102C0C1E010C0CF
:1007800007301105D9F3C0E0D0E080910301882340
:1007900009F454C0C83F81E0D80709F052C04EC0E8
:1007A000C093140160ED77E080E090E00E94BB040C
:1007B000CF5FC830A9F7F0928C0480918C0481112E
:1007C000FCCF0E94950242ED52E066E979E484E1B3
:1007D00090E00E940703C1E0C093140160ED77E050
:1007E00080E090E00E94BB04CF5FC830A9F768CFDB
:1007F000C8018C0F9D1F80FF05C0B801CE010E946B
:10080000540204C0B801CE010E9474020F5F1F4F52
:100810006ACF21965DCFC8018C0F9D1F80FF05C058
:10082000B801CE010E94740204C0B801CE010E943A
:1008300054020F5F1F4F80CF219673CF0F5F1F4F62
:1008400099CFBE01C8010E94540221969ECF1F92EB
:100850000F920FB60F9211242F933F934F935F93F4
:100860006F937F938F939F93AF93BF93EF93FF9378
:10087000E0914606F09147060995FF91EF91BF91EF
:10088000AF919F918F917F916F915F914F913F9128
:100890002F910F900FBE0F901F9018951F920F92DF
:1008A0000FB60F9211242F933F938F939F93AF9383
:1008B000BF9380914C0690914D06A0914E06B09149
:1008C0004F0630914B0623E0230F2D3720F401967D
:1008D000A11DB11D05C026E8230F0296A11DB11D63
:1008E00020934B0680934C0690934D06A0934E06A2
:1008F000B0934F068091500690915106A0915206F8
:10090000B09153060196A11DB11D8093500690939E
:100910005106A0935206B0935306BF91AF919F9199
:100920008F913F912F910F900FBE0F901F901895B0
:100930003FB7F8948091500690915106A0915206CD
:10094000B091530626B5A89B05C02F3F19F001961C
:10095000A11DB11D3FBF6627782F892F9A2F620FE7
:10096000711D811D911D42E0660F771F881F991F21
:100970004A95D1F70895CF92DF92EF92FF92CF93ED
:10098000DF936B017C010E949804EB01C114D10438
:10099000E104F10489F00E9439050E9498046C1B5F
:1009A0007D0B683E734090F381E0C81AD108E108DE
:1009B000F108C851DC4FEACFDF91CF91FF90EF9063
:1009C000DF90CF9008958230910538F0880F991FFD
:1009D000880F991F05970197F1F70895789484B5CA
:1009E000826084BD84B5816084BD85B5826085BD2B
:1009F00085B5816085BDEEE6F0E080818160808311
:100A0000E1E8F0E0108280818260808380818160F3
:100A10008083E0E8F0E0808181608083E1EBF0E0BA
:100A2000808184608083E0EBF0E08081816080835E
:100A3000EAE7F0E080818460808380818260808347
:100A40008081816080838081806880831092C10072
:100A5000089508950E94EE040E9429050E94530300
:100A6000C0E0D0E00E945E032097E1F30E94000006
:100A7000F9CF0895A1E21A2EAA1BBB1BFD010DC0E0
:100A8000AA1FBB1FEE1FFF1FA217B307E407F5073E
:100A900020F0A21BB30BE40BF50B661F771F881F1A
:100AA000991F1A9469F760957095809590959B01B0
:0C0AB000AC01BD01CF010895F894FFCF08
:100ABC00C80D07010000010011009200DB00EE00E0
:040ACC00FE00FF0029
:00000001FF
